:020000040000FA
:100000000C9462000C948A000C948A000C948A0070
:100010000C948A000C948A000C948A000C948A0038
:100020000C948A000C948A000C948A000C948A0028
:100030000C948A000C948A000C948A000C948A0018
:100040000C94AC050C948A000C941C060C94F605D8
:100050000C948A000C948A000C948A000C948A00F8
:100060000C948A000C948A000000000024002700F1
:100070002A0000000000250028002B0000000008D6
:10008000000201000003040700000000000000005F
:1000900000000000230026002900040404040404D6
:1000A0000404020202020202030303030303010227
:1000B00004081020408001020408102001020408F6
:1000C00010204E0611241FBECFEFD8E0DEBFCDBFFB
:1000D00011E0A0E0B1E0E0E6F5E102C005900D928C
:1000E000A639B107D9F722E0A6E9B1E001C01D9217
:1000F000A736B207E1F710E0C2E6D0E004C02197CE
:10010000FE010E94A80AC136D107C9F70E94BA06AB
:100110000C94AE0A0C940000CF92DF92EF92FF9203
:10012000CF93DF93B0914302A0E08111AB2F809178
:10013000440290E0880F991FAC0140575F4FC09078
:100140004902D0904A02E0904B02F0904C0230E01D
:1001500020E0FA01C591D491E881B90190E080E0F6
:10016000EB23EA130AC02F5F3F4F6C157D058E0508
:100170009F0578F36FEF7FEFCB01DF91CF91FF9079
:10018000EF90DF90CF900895FC01538D448D252F83
:1001900030E0842F90E0821B930B541710F0CF9621
:1001A000089501970895FC01918D828D981761F053
:1001B000A28DAE0FBF2FB11D5D968C91928D9F5F6A
:1001C0009F73928F90E008958FEF9FEF0895FC0149
:1001D000918D828D981731F0828DE80FF11D858DFC
:1001E00090E008958FEF9FEF0895FC01918D228D8F
:1001F000892F90E0805C9F4F821B91098F73992714
:100200000895FC01A48DA80FB92FB11DA35ABF4FAB
:100210002C91848D90E001968F739927848FA68905
:10022000B7892C93A089B1898C91837080648C9359
:10023000938D848D981306C00288F389E02D808108
:100240008F7D80830895EF92FF920F931F93CF933A
:10025000DF93EC0181E0888F9B8D8C8D98131AC001
:10026000E889F989808185FF15C09FB7F894EE89E8
:10027000FF896083E889F989808183708064808345
:100280009FBF81E090E0DF91CF911F910F91FF9090
:10029000EF900895F62E0B8D10E00F5F1F4F0F7338
:1002A0001127E02E8C8D8E110CC00FB607FCFACFF3
:1002B000E889F989808185FFF5CFCE010E9401018F
:1002C000F1CFEB8DEC0FFD2FF11DE35AFF4FF082C4
:1002D0009FB7F8940B8FEA89FB8980818062CFCF2A
:1002E000CF93DF93EC01888D8823B9F0AA89BB896D
:1002F000E889F9898C9185FD03C0808186FD0DC058
:100300000FB607FCF7CF8C9185FFF2CF808185FF78
:10031000EDCFCE010E940101E9CFDF91CF91089589
:100320008FE991E00E94F50021E0892B09F420E09B
:10033000822F089580E090E0892B29F00E9490019F
:1003400081110C9400000895833081F028F48130ED
:1003500099F08230A9F008958730A9F08830C9F06B
:100360008430B1F4809180008F7D03C08091800043
:100370008F7780938000089584B58F7784BD08952A
:1003800084B58F7DFBCF8091B0008F778093B000D4
:1003900008958091B0008F7DF9CF1F93CF93DF93A5
:1003A000282F30E0F901E458FF4F8491F901E2551C
:1003B000FF4FD491F901E656FF4FC491CC23A9F029
:1003C000162F81110E94A401EC2FF0E0EE0FFF1F09
:1003D000EE58FF4FA591B4918FB7F894EC9111119D
:1003E00008C0D095DE23DC938FBFDF91CF911F91A2
:1003F0000895DE2BF8CFCF93DF9390E0FC01E25518
:10040000FF4F249186569F4FFC0184918823C9F0A9
:1004100090E0880F991FFC01E859FF4FA591B49116
:10042000FC01EE58FF4FC591D49161110DC09FB7EB
:10043000F8948C91209582238C938881282328839B
:100440009FBFDF91CF910895623051F49FB7F89428
:100450003C91822F809583238C93E8812E2BEFCFC4
:100460008FB7F894EC912E2B2C938FBFEACF3FB728
:10047000F8948091970190919801A0919901B09181
:100480009A0126B5A89B05C02F3F19F00196A11D22
:10049000B11D3FBFBA2FA92F982F8827BC01CD01CE
:1004A000620F711D811D911D42E0660F771F881F2D
:1004B000991F4A95D1F708958F929F92AF92BF925C
:1004C000CF92DF92EF92FF924B015C010E943702C4
:1004D0006B017C010E9437026C197D098E099F090E
:1004E000683E734081059105A8F321E0821A9108C6
:1004F000A108B10888EEC80E83E0D81EE11CF11CEB
:1005000081149104A104B10429F7FF90EF90DF90CA
:10051000CF90BF90AF909F908F900895CF92DF9231
:10052000EF92FF920F931F93CF93DF93CDB7DEB778
:10053000C054D1400FB6F894DEBF0FBECDBF2FB769
:10054000F89480919B0190919C01A0919D01B091A4
:100550009E012FBF40914502509146026091470293
:10056000709148028C019D01041B150B260B370B63
:10057000B901A801403D57406105710590F4809193
:100580004D02C05CDE4F0FB6F894DEBF0FBECDBF8C
:10059000DF91CF911F910F91FF90EF90DF90CF905F
:1005A00008958093450290934602A0934702B0932A
:1005B00048021092400210923F0210923E021092A6
:1005C0003D0210923C0262E0809141020E94FB01D8
:1005D00061E070E080E090E00E945C0261E0809168
:1005E00041020E94FB0160E0809141020E94CD0126
:1005F000809142028551823020F58BE291E1019792
:10060000F1F762E0809141020E94FB0180914E026D
:1006100090E08230910538F0880F991F880F991F5C
:1006200005970197F1F7F89480E00E948C006F3FE6
:100630007F4F8F4F9F4F61F410924D02789480E06E
:10064000A0CF64E170E080E090E00E945C02D9CF2E
:1006500081E00E948C006F3F7F4F8F4F9F4F61F36F
:100660008E010F5F1F4F6E018FEBC81A8EEFD80AF5
:10067000780180E00E948C00F7016083718382839F
:10068000938381E00E948C00F701648375838683E5
:100690009783F8E0EF0EF11CEC14FD0451F7789409
:1006A00030E020E0F801C080D180E280F380448116
:1006B000558166817781FFEFCF16DF06EF06FF06D3
:1006C00031F04F3F8FEF58076807780719F4109201
:1006D0004D02B5CFF90183E0F595E7958A95E1F7ED
:1006E000E45CFD4F8081880FC416D506E606F70648
:1006F00010F180832F5F3F4F085F1F4F2832310575
:1007000089F64091400220913C0280913D02280FE1
:100710003327331F80913E02280F311D80913F0205
:10072000820F932F911D99274817190681F681E0B2
:1007300080934D0226CF8160DCCFAF92BF92CF92E3
:10074000DF92EF92FF920F931F93CF93DF936C0191
:100750007B018B01040F151FEB015E01AE18BF0872
:10076000C017D10759F06991D601ED91FC91019024
:10077000F081E02DC6010995892B79F7C501DF913C
:10078000CF911F910F91FF90EF90DF90CF90BF908E
:10079000AF900895089590E080E008958F929F9221
:1007A000AF92BF920F931F93CF93DF93CDB7DEB776
:1007B000A1970FB6F894DEBF0FBECDBF19A242308D
:1007C00008F44AE08E010F5D1F4F842E912CB12C4E
:1007D000A12CA50194010E94860AE62FB901CA0145
:1007E000EA3044F5E05DD801EE938D01232B242BF4
:1007F000252B79F790E080E0109769F0FD010190DA
:100800000020E9F73197AF014A1B5B0BBD018FE474
:1008100092E00E949D03A1960FB6F894DEBF0FBE32
:10082000CDBFDF91CF911F910F91BF90AF909F905F
:100830008F900895E95CD7CFFC0101900020E9F783
:100840003197AF01481B590BBC018FE492E00C9427
:100850009D03CF93DF93EC0160E08E810E94CD0178
:1008600061E08E810E94CD0160E08E810E94CD0109
:100870008BE891E00197F1F7DF91CF910895CF9246
:10088000DF92EF92FF920F931F93CF93DF936C0150
:100890007C0187E0E80EF11CD0E0C0E0062F10E0FC
:1008A000B8010C2E02C0759567950A94E2F7617045
:1008B000F70181917F010E94CD012196C430D105BD
:1008C00079F7C601DF91CF911F910F91FF90EF90C3
:1008D000DF90CF900C942904CF92DF92EF92FF9299
:1008E0000F931F93CF93DF93EC01F62E642F8C812F
:1008F0000E94CD018D818F3F19F060E00E94CD01F3
:100900000F2D10E08F8584FF25C06E0187E0C80E93
:10091000D11CF12CE12CB8010E2C02C07595679505
:100920000A94E2F76170F60181916F010E94CD0196
:10093000FFEFEF1AFF0A88E0E816F10461F7CE0135
:10094000DF91CF911F910F91FF90EF90DF90CF90AB
:100950000C942904B80184E0759567958A95E1F7B0
:10096000CE010E943F046F2DCE01DF91CF911F91E8
:100970000F91FF90EF90DF90CF900C943F0440E0F8
:10098000682F8FE492E00C946C0481E00E94BF0415
:100990008BE39FE10197F1F70895CF93DF938230C6
:1009A00029F490915E02986090935E0280936202B7
:1009B0001092630280E48093640280E18093650278
:1009C00080E58093660261E0809153020E94FB0102
:1009D000809154028F3F19F061E00E94FB0161E0B9
:1009E000809155020E94FB01CFE4D2E09E012F547A
:1009F000324080915E0284FD0BC084E090E021963D
:100A00002817390744F461E08E810E94FB01EECF84
:100A100088E090E0F4CF8BE39DE00197F1F760E090
:100A2000809153020E94CD0160E0809155020E94A6
:100A3000CD01809154028F3F19F060E00E94CD01FA
:100A400080915E0284FD34C063E08FE492E00E94F6
:100A50003F04CBE4D6E4CE010197F1F763E08FE4E5
:100A600092E00E943F042197F1F763E08FE492E067
:100A70000E943F0483E592E00197F1F762E08FE482
:100A800092E00E943F0480915E0280620E94BF0457
:100A900084E080935F028CE00E94BF040E94C50442
:100AA00082E08093600286E0DF91CF910C94BF04D6
:100AB00080620E94BF048BE496E40197F1F7809175
:100AC0005E0280620E94BF0483E592E00197F1F725
:100AD00080915E0280620E94BF04D5CF9091620235
:100AE000691710F06FEF690FE62FF0E0E15BFD4F43
:100AF0009489890F80680C94BF0441E00E946C04C3
:100B000081E090E00895CF92DF92EF92FF926C0126
:100B1000990FEE08FF08F7FE16C041E06DE28FE482
:100B200092E00E946C0466277727CB016C197D093F
:100B30008E099F094AE00E94CE030196FF90EF9034
:100B4000DF90CF9008954AE0C701B601FF90EF9083
:100B5000DF90CF900C94CE031F920F920FB60F929E
:100B600011242F933F938F939F93AF93BF938091C3
:100B70009B0190919C01A0919D01B0919E013091AB
:100B8000960123E0230F2D3758F50196A11DB11DC5
:100B90002093960180939B0190939C01A0939D01CB
:100BA000B0939E018091970190919801A091990135
:100BB000B0919A010196A11DB11D80939701909368
:100BC0009801A0939901B0939A01BF91AF919F9121
:100BD0008F913F912F910F900FBE0F901F901895FE
:100BE00026E8230F0296A11DB11DD2CF1F920F92AE
:100BF0000FB60F9211242F933F934F935F936F93F0
:100C00007F938F939F93AF93BF93EF93FF938FE95E
:100C100091E00E940101FF91EF91BF91AF919F91EF
:100C20008F917F916F915F914F913F912F910F9095
:100C30000FBE0F901F9018951F920F920FB60F9234
:100C400011242F938F939F93EF93FF93E091AF0124
:100C5000F091B0018081E091B501F091B60182FD83
:100C60001BC090818091B8018F5F8F732091B90173
:100C7000821741F0E091B801F0E0E156FE4F958F08
:100C80008093B801FF91EF919F918F912F910F90D9
:100C90000FBE0F901F9018958081F4CFCF93EFE98E
:100CA000F1E01382128288EE93E0A0E0B0E084834A
:100CB0009583A683B78384E091E09183808385EC5C
:100CC00090E09587848784EC90E09787868780EC16
:100CD00090E0918B808B81EC90E0938B828B82EC07
:100CE00090E0958B848B86EC90E0978B868B118EB1
:100CF000128E138E148EEFE4F2E01382128286E1DC
:100D000091E0918380838CE084838FEF8583CBE0B7
:100D1000C68385E0878384E0808783E0818782E0E3
:100D200082871386148615861686178681E00E94B0
:100D3000CD04ACE3B2E08DE015968C931597169632
:100D4000CC931697EBEBF0E0E4911796EC931797A2
:100D5000E7EAF0E0E4911896EC93189740E85EE338
:100D600060E070E01D964D935D936D937C9350977A
:100D7000CF910895789484B5826084BD84B58160F4
:100D800084BD85B5826085BD85B5816085BD809156
:100D90006E00816080936E001092810080918100CE
:100DA00082608093810080918100816080938100C6
:100DB000809180008160809380008091B100846088
:100DC0008093B1008091B00081608093B0008091E9
:100DD0007A00846080937A0080917A0082608093A8
:100DE0007A0080917A00816080937A0080917A0005
:100DF000806880937A001092C10082E00E94CD0446
:100E000062E0809141020E94FB012FB7F89480912B
:100E10009B0190919C01A0919D01B0919E012FBFDB
:100E2000805D9740A109B1098093450290934602E5
:100E3000A0934702B093480287E380934E0262E09A
:100E40008EE00E94FB0160E08FE00E94FB0161E008
:100E500086E00E94FB0161E087E00E94FB0161E007
:100E600088E00E94FB0160E086E00E946E058EE152
:100E700091E00E941C0464EF71E080E090E00E9429
:100E80005C020E94C50460E082E00E946E0584E27C
:100E900091E00E941C0461E084E00E946E0580E302
:100EA00091E00E941C0464EF71E080E090E00E94F9
:100EB0005C020E94C5042CEB222E20E0322E38EA80
:100EC000832E30E0932E40E0A42E40E0B42E81E447
:100ED00080937C0080917A00806480937A00809176
:100EE0007A0086FDFCCF0091780010917900EAE845
:100EF000F0E08491F101C491F401D491DD2321F15A
:100F000081110E94A401ED2FF0E0EE0FFF1FE057CA
:100F1000FF4FA591B4918C91C82391E080E009F432
:100F200090E0C92FD82F0E948E02882341F0809133
:100F300042028C3009F464C050F48B3019F160E047
:100F400070E080EC9FE746C0D0E0C0E0ECCF855178
:100F50008230A8F7F0903E026F2D70E0762F662762
:100F600066277F7780913F02682B90E080E00E94A7
:100F70008B092DEC3CEC4CEC5DE30E94190AF7FE6A
:100F800029C05CC060913E0270E090E080E00E9469
:100F90008B096B017C0170903F0277FE0AC0AC01A7
:100FA0009B0160E070E080E89FEB0E94E8086B0125
:100FB0007C01672D6F7070E090E080E00E948D09E9
:100FC0002DEC3CEC4CEC5DE30E94190AA701960164
:100FD0000E94E9080E9455092B010E948E02882375
:100FE00051F0809142028B3030F08D3048F18551C4
:100FF000823008F47BC060E070E080EC9FE73CC08A
:1010000070903E02672D70E090E080E00E948B09B6
:101010006B017C0160913F026F7070E090E080E0B6
:101020000E948D092DEC3CEC4CEC5DE30E94190A0A
:10103000A70196010E94E90877FECCCF9058CACF4D
:1010400060913D0270E090E080E00E948D092DECFF
:101050003CEC4CEC5DE30E94190A6B017C01609151
:101060003C0270E090E080E00E948D099B01AC01A1
:10107000C701B6010E94E9080E9455096B010E9450
:10108000C504219709F07BC00B3F11050CF440C04B
:1010900061E088E00E94CD0161E087E00E94CD011F
:1010A00060E086E00E94CD0160E080E00E946E0575
:1010B00088E391E00E941C0461E080E00E946E05DC
:1010C00087E491E00E941C0464EF71E080E090E00E
:1010D0000E945C02A114B10409F4F9CE0E949001AF
:1010E000882309F4F4CE0E940000F1CE60913C0206
:1010F00070913D0276276727762790E080E00E9476
:101100008B092DEC3CEC4CEC5DE30E94190AB4CF4A
:101110000A3F110509F449C060E088E00E94CD0152
:1011200061E087E00E94CD0160E086E00E94CD0191
:1011300060E080E00E946E0588E591E00E941C045A
:1011400061E080E00E946E0588E691E00E941C0448
:1011500061E085E00E946E05C2010E94830561E0A6
:1011600089E00E946E058EE691E00E941C0461E019
:101170008EE00E946E05C6010E948305A5CF0B3F3D
:1011800011059CF061E088E00E94CD0160E087E0FD
:101190000E94CD0160E086E00E94CD0160E080E029
:1011A0000E946E0584E791E0C9CF60E088E00E946C
:1011B000CD0160E087E00E94CD0161E086E00E9401
:1011C000CD0160E080E00E946E0585E891E0B6CF39
:1011D0005058BB27AA270E9400090C94DF090E94DF
:1011E000D10938F00E94D80920F039F49F3F19F452
:1011F00026F40C94CE090EF4E095E7FB0C94C80994
:10120000E92F0E94F00958F3BA17620773078407A1
:10121000950720F079F4A6F50C94120A0EF4E095E7
:101220000B2EBA2FA02D0B01B90190010C01CA01A0
:10123000A0011124FF27591B99F0593F50F4503E4B
:1012400068F11A16F040A22F232F342F4427585F3D
:10125000F3CF469537952795A795F0405395C9F755
:101260007EF41F16BA0B620B730B840BBAF091500D
:10127000A1F0FF0FBB1F661F771F881FC2F70EC0AC
:10128000BA0F621F731F841F48F48795779567957F
:10129000B795F7959E3F08F0B0CF9395880F08F06B
:1012A0009927EE0F9795879508950E945C09689499
:1012B000B1110C94130A08950E94F80988F09F5701
:1012C00098F0B92F9927B751B0F0E1F0660F771F6A
:1012D000881F991F1AF0BA95C9F714C0B13091F060
:1012E0000E94120AB1E008950C94120A672F782F19
:1012F0008827B85F39F0B93FCCF386957795679525
:10130000B395D9F73EF490958095709561957F4F90
:101310008F4F9F4F0895E89409C097FB3EF4909536
:101320008095709561957F4F8F4F9F4F9923A9F0BE
:10133000F92F96E9BB279395F6958795779567954D
:10134000B795F111F8CFFAF4BB0F11F460FF1BC091
:101350006F5F7F4F8F4F9F4F16C0882311F096E924
:1013600011C0772321F09EE8872F762F05C06623D2
:1013700071F096E8862F70E060E02AF09A95660F8B
:10138000771F881FDAF7880F9695879597F9089544
:1013900097F99F6780E870E060E008959FEF80EC28
:1013A000089500240A9416161706180609060895CB
:1013B00000240A9412161306140605060895092E31
:1013C0000394000C11F4882352F0BB0F40F4BF2BA0
:1013D00011F460FF04C06F5F7F4F8F4F9F4F0895E0
:1013E00057FD9058440F551F59F05F3F71F04795D6
:1013F000880F97FB991F61F09F3F79F087950895BB
:10140000121613061406551FF2CF4695F1DF08C0D9
:10141000161617061806991FF1CF869571056105F6
:1014200008940895E894BB2766277727CB0197F99E
:1014300008950E942C0A0C94DF090E94D10938F00B
:101440000E94D80920F0952311F00C94C8090C943F
:10145000CE0911240C94130A0E94F00970F3959F91
:10146000C1F3950F50E0551F629FF001729FBB279B
:10147000F00DB11D639FAA27F00DB11DAA1F649F37
:101480006627B00DA11D661F829F2227B00DA11DEA
:10149000621F739FB00DA11D621F839FA00D611D70
:1014A000221F749F3327A00D611D231F849F600D91
:1014B000211D822F762F6A2F11249F5750409AF0BA
:1014C000F1F088234AF0EE0FFF1FBB1F661F771F46
:1014D000881F91505040A9F79E3F510580F00C9411
:1014E000C8090C94130A5F3FE4F3983ED4F3869541
:1014F00077956795B795F795E7959F5FC1F7FE2BB1
:10150000880F911D9695879597F90895A1E21A2E57
:10151000AA1BBB1BFD010DC0AA1FBB1FEE1FFF1F97
:10152000A217B307E407F50720F0A21BB30BE40BE7
:10153000F50B661F771F881F991F1A9469F760952E
:101540007095809590959B01AC01BD01CF010895E8
:10155000EE0FFF1F0590F491E02D0994F894FFCF52
:101560000000000023019D03C4007001F500D300BA
:10157000E700000000007D059D03CB03CA0348651A
:101580006C6C6F00456E7669726F6E6D656E74007F
:101590004D6F6E69746F72004D51323A44657465D7
:1015A000637420476173004D513133353A4465749B
:1015B00065637420476173004D512D32203A2044F9
:1015C000657465637465640054656D703A004875B0
:1015D0006D693A004D512D313335203A44657465BB
:1015E00063746564004D512D323A4726264D5131C2
:0615F00033353A4700000C
:107E0000112484B714BE81FFF0D085E080938100F7
:107E100082E08093C00088E18093C10086E0809377
:107E2000C20080E18093C4008EE0C9D0259A86E02C
:107E300020E33CEF91E0309385002093840096BBD3
:107E4000B09BFECF1D9AA8958150A9F7CC24DD24C4
:107E500088248394B5E0AB2EA1E19A2EF3E0BF2EE7
:107E6000A2D0813461F49FD0082FAFD0023811F036
:107E7000013811F484E001C083E08DD089C08234E0
:107E800011F484E103C0853419F485E0A6D080C0E4
:107E9000853579F488D0E82EFF2485D0082F10E0AE
:107EA000102F00270E291F29000F111F8ED06801E7
:107EB0006FC0863521F484E090D080E0DECF843638
:107EC00009F040C070D06FD0082F6DD080E0C81688
:107ED00080E7D80618F4F601B7BEE895C0E0D1E017
:107EE00062D089930C17E1F7F0E0CF16F0E7DF06D8
:107EF00018F0F601B7BEE89568D007B600FCFDCFD4
:107F0000A601A0E0B1E02C9130E011968C91119780
:107F100090E0982F8827822B932B1296FA010C0160
:107F200087BEE89511244E5F5F4FF1E0A038BF0790
:107F300051F7F601A7BEE89507B600FCFDCF97BE46
:107F4000E89526C08437B1F42ED02DD0F82E2BD052
:107F50003CD0F601EF2C8F010F5F1F4F84911BD097
:107F6000EA94F801C1F70894C11CD11CFA94CF0C13
:107F7000D11C0EC0853739F428D08EE10CD085E9AC
:107F80000AD08FE07ACF813511F488E018D01DD067
:107F900080E101D065CF982F8091C00085FFFCCF94
:107FA0009093C60008958091C00087FFFCCF809118
:107FB000C00084FD01C0A8958091C6000895E0E648
:107FC000F0E098E1908380830895EDDF803219F02E
:107FD00088E0F5DFFFCF84E1DECF1F93182FE3DFCA
:107FE0001150E9F7F2DF1F91089580E0E8DFEE27F6
:047FF000FF270994CA
:027FFE00040479
:00000001FF
